{
  "_format": "hh-sol-artifact-1",
  "contractName": "Voting",
  "sourceName": "contracts/Voting.sol",
  "abi": [
    {
      "inputs": [],
      "stateMutability": "nonpayable",
      "type": "constructor"
    },
    {
      "inputs": [
        {
          "internalType": "uint256",
          "name": "",
          "type": "uint256"
        }
      ],
      "name": "candidateList",
      "outputs": [
        {
          "internalType": "string",
          "name": "",
          "type": "string"
        }
      ],
      "stateMutability": "view",
      "type": "function"
    },
    {
      "inputs": [],
      "name": "getCandidateList",
      "outputs": [
        {
          "internalType": "string[]",
          "name": "",
          "type": "string[]"
        }
      ],
      "stateMutability": "view",
      "type": "function"
    },
    {
      "inputs": [
        {
          "internalType": "string",
          "name": "candidate",
          "type": "string"
        }
      ],
      "name": "totalVotesFor",
      "outputs": [
        {
          "internalType": "uint256",
          "name": "",
          "type": "uint256"
        }
      ],
      "stateMutability": "view",
      "type": "function"
    },
    {
      "inputs": [
        {
          "internalType": "string",
          "name": "candidate",
          "type": "string"
        }
      ],
      "name": "validCandidate",
      "outputs": [
        {
          "internalType": "bool",
          "name": "",
          "type": "bool"
        }
      ],
      "stateMutability": "view",
      "type": "function"
    },
    {
      "inputs": [
        {
          "internalType": "string",
          "name": "candidate",
          "type": "string"
        }
      ],
      "name": "voteForCandidate",
      "outputs": [],
      "stateMutability": "nonpayable",
      "type": "function"
    },
    {
      "inputs": [
        {
          "internalType": "string",
          "name": "",
          "type": "string"
        }
      ],
      "name": "votesReceived",
      "outputs": [
        {
          "internalType": "uint256",
          "name": "",
          "type": "uint256"
        }
      ],
      "stateMutability": "view",
      "type": "function"
    }
  ],
  "bytecode": "0x60806040523480156200001157600080fd5b5060405180604001604052806040518060400160405280600681526020017f4a6f686e6e79000000000000000000000000000000000000000000000000000081525081526020016040518060400160405280600581526020017f416d6265720000000000000000000000000000000000000000000000000000008152508152506001906002620000a3929190620000aa565b50620004f8565b828054828255906000526020600020908101928215620000f7579160200282015b82811115620000f6578251829081620000e5919062000411565b5091602001919060010190620000cb565b5b5090506200010691906200010a565b5090565b5b808211156200012e576000818162000124919062000132565b506001016200010b565b5090565b508054620001409062000200565b6000825580601f1062000154575062000175565b601f01602090049060005260206000209081019062000174919062000178565b5b50565b5b808211156200019357600081600090555060010162000179565b5090565b600081519050919050565b7f4e487b7100000000000000000000000000000000000000000000000000000000600052604160045260246000fd5b7f4e487b7100000000000000000000000000000000000000000000000000000000600052602260045260246000fd5b600060028204905060018216806200021957607f821691505b6020821081036200022f576200022e620001d1565b5b50919050565b60008190508160005260206000209050919050565b60006020601f8301049050919050565b600082821b905092915050565b600060088302620002997fffffffffffffffffffffffffffffffffffffffffffffffffffffffffffffffff826200025a565b620002a586836200025a565b95508019841693508086168417925050509392505050565b6000819050919050565b6000819050919050565b6000620002f2620002ec620002e684620002bd565b620002c7565b620002bd565b9050919050565b6000819050919050565b6200030e83620002d1565b620003266200031d82620002f9565b84845462000267565b825550505050565b600090565b6200033d6200032e565b6200034a81848462000303565b505050565b5b8181101562000372576200036660008262000333565b60018101905062000350565b5050565b601f821115620003c1576200038b8162000235565b62000396846200024a565b81016020851015620003a6578190505b620003be620003b5856200024a565b8301826200034f565b50505b505050565b600082821c905092915050565b6000620003e660001984600802620003c6565b1980831691505092915050565b6000620004018383620003d3565b9150826002028217905092915050565b6200041c8262000197565b67ffffffffffffffff811115620004385762000437620001a2565b5b62000444825462000200565b6200045182828562000376565b600060209050601f83116001811462000489576000841562000474578287015190505b620004808582620003f3565b865550620004f0565b601f198416620004998662000235565b60005b82811015620004c3578489015182556001820191506020850194506020810190506200049c565b86831015620004e35784890151620004df601f891682620003d3565b8355505b6001600288020188555050505b505050505050565b610aa380620005086000396000f3fe608060405234801561001057600080fd5b50600436106100625760003560e01c80634a3bf37714610067578063538c91b2146100975780638d4b44d9146100c7578063b13c744b146100f7578063e89927ef14610127578063fdbc400614610143575b600080fd5b610081600480360381019061007c919061054b565b610161565b60405161008e91906105ad565b60405180910390f35b6100b160048036038101906100ac919061054b565b610188565b6040516100be91906105e3565b60405180910390f35b6100e160048036038101906100dc919061054b565b610205565b6040516100ee91906105ad565b60405180910390f35b610111600480360381019061010c919061062a565b610233565b60405161011e91906106d6565b60405180910390f35b610141600480360381019061013c919061054b565b6102df565b005b61014b610318565b6040516101589190610804565b60405180910390f35b600080826040516101729190610862565b9081526020016040518091039020549050919050565b600080600090505b6001805490508110156101fa578280519060200120600182815481106101b9576101b8610879565b5b906000526020600020016040516101d091906109ab565b6040518091039020036101e7576001915050610200565b80806101f2906109f1565b915050610190565b50600090505b919050565b6000818051602081018201805184825260208301602085012081835280955050505050506000915090505481565b6001818154811061024357600080fd5b90600052602060002001600091509050805461025e906108d7565b80601f016020809104026020016040519081016040528092919081815260200182805461028a906108d7565b80156102d75780601f106102ac576101008083540402835291602001916102d7565b820191906000526020600020905b8154815290600101906020018083116102ba57829003601f168201915b505050505081565b60016000826040516102f19190610862565b9081526020016040518091039020600082825461030e9190610a39565b9250508190555050565b60606001805480602002602001604051908101604052809291908181526020016000905b828210156103e857838290600052602060002001805461035b906108d7565b80601f0160208091040260200160405190810160405280929190818152602001828054610387906108d7565b80156103d45780601f106103a9576101008083540402835291602001916103d4565b820191906000526020600020905b8154815290600101906020018083116103b757829003601f168201915b50505050508152602001906001019061033c565b50505050905090565b6000604051905090565b600080fd5b600080fd5b600080fd5b600080fd5b6000601f19601f8301169050919050565b7f4e487b7100000000000000000000000000000000000000000000000000000000600052604160045260246000fd5b6104588261040f565b810181811067ffffffffffffffff8211171561047757610476610420565b5b80604052505050565b600061048a6103f1565b9050610496828261044f565b919050565b600067ffffffffffffffff8211156104b6576104b5610420565b5b6104bf8261040f565b9050602081019050919050565b82818337600083830152505050565b60006104ee6104e98461049b565b610480565b90508281526020810184848401111561050a5761050961040a565b5b6105158482856104cc565b509392505050565b600082601f83011261053257610531610405565b5b81356105428482602086016104db565b91505092915050565b600060208284031215610561576105606103fb565b5b600082013567ffffffffffffffff81111561057f5761057e610400565b5b61058b8482850161051d565b91505092915050565b6000819050919050565b6105a781610594565b82525050565b60006020820190506105c2600083018461059e565b92915050565b60008115159050919050565b6105dd816105c8565b82525050565b60006020820190506105f860008301846105d4565b92915050565b61060781610594565b811461061257600080fd5b50565b600081359050610624816105fe565b92915050565b6000602082840312156106405761063f6103fb565b5b600061064e84828501610615565b91505092915050565b600081519050919050565b600082825260208201905092915050565b60005b83811015610691578082015181840152602081019050610676565b60008484015250505050565b60006106a882610657565b6106b28185610662565b93506106c2818560208601610673565b6106cb8161040f565b840191505092915050565b600060208201905081810360008301526106f0818461069d565b905092915050565b600081519050919050565b600082825260208201905092915050565b6000819050602082019050919050565b600082825260208201905092915050565b600061074082610657565b61074a8185610724565b935061075a818560208601610673565b6107638161040f565b840191505092915050565b600061077a8383610735565b905092915050565b6000602082019050919050565b600061079a826106f8565b6107a48185610703565b9350836020820285016107b685610714565b8060005b858110156107f257848403895281516107d3858261076e565b94506107de83610782565b925060208a019950506001810190506107ba565b50829750879550505050505092915050565b6000602082019050818103600083015261081e818461078f565b905092915050565b600081905092915050565b600061083c82610657565b6108468185610826565b9350610856818560208601610673565b80840191505092915050565b600061086e8284610831565b915081905092915050565b7f4e487b7100000000000000000000000000000000000000000000000000000000600052603260045260246000fd5b7f4e487b7100000000000000000000000000000000000000000000000000000000600052602260045260246000fd5b600060028204905060018216806108ef57607f821691505b602082108103610902576109016108a8565b5b50919050565b600081905092915050565b60008190508160005260206000209050919050565b60008154610935816108d7565b61093f8186610908565b9450600182166000811461095a576001811461096f576109a2565b60ff19831686528115158202860193506109a2565b61097885610913565b60005b8381101561099a5781548189015260018201915060208101905061097b565b838801955050505b50505092915050565b60006109b78284610928565b915081905092915050565b7f4e487b7100000000000000000000000000000000000000000000000000000000600052601160045260246000fd5b60006109fc82610594565b91507fffffffffffffffffffffffffffffffffffffffffffffffffffffffffffffffff8203610a2e57610a2d6109c2565b5b600182019050919050565b6000610a4482610594565b9150610a4f83610594565b9250828201905080821115610a6757610a666109c2565b5b9291505056fea2646970667358221220034c5cab6882adbf1ddb2daae6f44528f77f660385dfd2946d1239477db812bc64736f6c63430008120033",
  "linkReferences": {},
  "deployedLinkReferences": {}
}